{
  "config" : {
    "chainId" : 1337,
    "berlinBlock" : 0,
    "londonBlock": 0,
    "parisBlock": 0,
    "shanghaiTime": 0,
    "cancunTime": 0,
    "qbft" : {
      "blockperiodseconds" : 2,
      "epochlength" : 30000,
      "requesttimeoutseconds" : 4
    }
  },
  "nonce" : "0x0",
  "timestamp" : "0x58ee40ba",
  "gasLimit" : "0x1fffffffffffff",
  "difficulty" : "0x1",
  "mixHash" : "0x63746963616c2062797a616e74696e65206661756c7420746f6c6572616e6365",
  "coinbase" : "0x0000000000000000000000000000000000000000",
  "alloc" : {
    "0x8ec9c9b26202524b6569ffb95b36fa53634d6b0e": {
      "balance": "0x200000000000000000000000000000000000000000000000000000000000000"
    },
    "0x5c0a17c304ac2379302f9425c15b979eaf0b1af9": {
      "balance": "0x200000000000000000000000000000000000000000000000000000000000000"
    },
    "0x7974570396f66454ab47c9e2d42c15ed93b194d6": {
      "balance": "0x200000000000000000000000000000000000000000000000000000000000000"
    },
    "0xccaac539b2d7731b9399ca1f07764486368f6b7e": {
      "balance": "0x200000000000000000000000000000000000000000000000000000000000000"
    }
  },
  "extraData" : "0xf87aa00000000000000000000000000000000000000000000000000000000000000000f854948ec9c9b26202524b6569ffb95b36fa53634d6b0e945c0a17c304ac2379302f9425c15b979eaf0b1af9947974570396f66454ab47c9e2d42c15ed93b194d694ccaac539b2d7731b9399ca1f07764486368f6b7ec080c0"
}
